:020000040800F2
:100000000050002075250008C5250008C5250008FA
:10001000C5250008C5250008C5250008000000000A
:10002000000000000000000000000000C5250008DE
:10003000C525000800000000C5250008CD280008DF
:10004000C5250008C5250008C5250008C5250008E8
:10005000C5250008C5250008C5250008C5250008D8
:10006000ED2B0008C5250008C5250008C52500089A
:10007000C5250008C5250008C5250008C5250008B8
:10008000C5250008C5250008992B0008C5250008CE
:10009000C5250008C5250008C5250008C525000898
:1000A000C5250008C5250008C5250008C525000888
:1000B000A1290008C5250008C5250008C525000898
:1000C000C5250008C5250008C5250008C525000868
:1000D000C5250008C5250008C5250008C525000858
:1000E000C5250008C5250008C5250008C525000848
:1000F000C5250008C5250008C5250008C525000838
:10010000C5250008C5250008C5250008C525000827
:10011000C5250008C5250008C5250008C525000817
:10012000C5250008C5250008C5250008C525000807
:10013000C52500080000000000000000C5250008DB
:10014000C5250008C5250008C5250008C5250008E7
:10015000C5250008C5250008C5250008C5250008D7
:10016000C5250008C5250008C5250008C5250008C7
:10017000C5250008C525000800000000000000009B
:04018000C525000889
:1001880010B5054C237833B9044B13B10448AFF3C9
:1001980000800123237010BD8C04002000000000A3
:1001A8006C4100080C4B43B10C4810B50C49AFF337
:1001B80000800C48036823B910BD0A48036833B9A6
:1001C8007047094B002BF7D0BDE810401847064B85
:1001D800002BF5D0184700BF000000006C41000854
:1001E800900400208C0400200000000081F00041F1
:1001F80002E000BF83F0004330B54FEA41044FEA04
:10020800430594EA050F08BF90EA020F1FBF54EA9E
:10021800000C55EA020C7FEA645C7FEA655C00F03A
:10022800E2804FEA5454D4EB5555B8BF6D420CDD0B
:100238002C4480EA020281EA030382EA000083EA8E
:10024800010180EA020281EA0303362D88BF30BD2E
:1002580011F0004F4FEA01314FF4801C4CEA113184
:1002680002D0404261EB410113F0004F4FEA0333E3
:100278004CEA133302D0524263EB430394EA050F6E
:1002880000F0A780A4F10104D5F1200E0DDB02FADD
:100298000EFC22FA05F2801841F1000103FA0EF271
:1002A800801843FA05F359410EE0A5F120050EF137
:1002B800200E012A03FA0EFC28BF4CF0020C43FA68
:1002C80005F3C01851EBE37101F0004507D54FF075
:1002D800000EDCF1000C7EEB00006EEB0101B1F5C5
:1002E800801F1BD3B1F5001F0CD349085FEA30000B
:1002F8004FEA3C0C04F101044FEA445212F5800F16
:1003080080F09A80BCF1004F08BF5FEA500C50F1B2
:10031800000041EB045141EA050130BD5FEA4C0C95
:10032800404141EB010111F4801FA4F10104E9D11E
:1003380091F0000F04BF01460020B1FA81F308BF15
:100348002033A3F10B03B3F120020CDA0C3208DDE1
:1003580002F1140CC2F10C0201FA0CF021FA02F1BC
:100368000CE002F11402D8BFC2F1200C01FA02F12C
:1003780020FA0CFCDCBF41EA0C019040E41AA2BF51
:1003880001EB0451294330BD6FEA04041F3C1CDA19
:100398000C340EDC04F11404C4F1200220FA04F039
:1003A80001FA02F340EA030021FA04F345EA0301E3
:1003B80030BDC4F10C04C4F1200220FA02F001FAA5
:1003C80004F340EA0300294630BD21FA04F0294627
:1003D80030BD94F0000F83F4801306BF81F48011C0
:1003E8000134013D4EE77FEA645C18BF7FEA655C33
:1003F80029D094EA050F08BF90EA020F05D054EA05
:10040800000C04BF1946104630BD91EA030F1EBF09
:100418000021002030BD5FEA545C05D1400049410D
:1004280028BF41F0004130BD14F580043CBF01F500
:10043800801130BD01F0004545F0FE4141F47001E6
:100448004FF0000030BD7FEA645C1ABF19461046C1
:100458007FEA655C1CBF0B46024650EA013406BFC2
:1004680052EA033591EA030F41F4002130BD00BF81
:1004780090F0000F04BF0021704730B54FF480643E
:1004880004F132044FF000054FF0000150E700BFBF
:1004980090F0000F04BF0021704730B54FF480641E
:1004A80004F1320410F0004548BF40424FF000010B
:1004B8003EE700BF42004FEAE2014FEA31014FEA4E
:1004C80002701FBF12F07F4393F07F4F81F060519D
:1004D800704792F0000F14BF93F07F4F704730B50C
:1004E8004FF4607401F0004521F0004120E700BF9F
:1004F80050EA010208BF704730B54FF000050AE026
:1005080050EA010208BF704730B511F0004502D526
:10051800404261EB41014FF4806404F132045FEA28
:10052800915C3FF4DCAE4FF003025FEADC0C18BFCD
:1005380003325FEADC0C18BF033202EBDC02C2F1C3
:10054800200300FA03FC20FA02F001FA03FE40EA55
:100558000E0021FA02F11444C1E600BF70B54FF055
:10056800FF0C4CF4E06C1CEA11541DBF1CEA135537
:1005780094EA0C0F95EA0C0F00F0DEF82C4481EA9F
:10058800030621EA4C5123EA4C5350EA013518BFBF
:1005980052EA033541F4801143F4801338D0A0FBAC
:1005A80002CE4FF00005E1FB02E506F00042E0FB59
:1005B80003E54FF00006E1FB03569CF0000F18BF5F
:1005C8004EF0010EA4F1FF04B6F5007F64F5407407
:1005D80004D25FEA4E0E6D4146EB060642EAC6219A
:1005E80041EA55514FEAC52040EA5E504FEACE2E07
:1005F800B4F1FD0C88BFBCF5E06F1ED8BEF1004F0A
:1006080008BF5FEA500E50F1000041EB045170BD85
:1006180006F0004646EA010140EA020081EA0301C9
:10062800B4EB5C04C2BFD4EB0C0541EA045170BDC5
:1006380041F480114FF0000E013C00F3AB8014F13F
:10064800360FDEBF002001F0004170BDC4F1000488
:10065800203C35DA0C341BDC04F11404C4F1200509
:1006680000FA05F320FA04F001FA05F240EA020064
:1006780001F0004221F0004110EBD37021FA04F69A
:1006880042EB06015EEA430E08BF20EAD37070BD54
:10069800C4F10C04C4F1200500FA04F320FA05F0B3
:1006A80001FA04F240EA020001F0004110EBD370B5
:1006B80041F100015EEA430E08BF20EAD37070BD25
:1006C800C4F1200500FA05F24EEA020E20FA04F3FE
:1006D80001FA05F243EA020321FA04F001F00041AD
:1006E80021FA04F220EA020000EBD3705EEA430E1E
:1006F80008BF20EAD37070BD94F0000F0FD101F04D
:100708000046400041EB010111F4801F08BF013C85
:10071800F7D041EA060195F0000F18BF704703F0C3
:100728000046520043EB030313F4801F08BF013D4A
:10073800F7D043EA0603704794EA0C0F0CEA135506
:1007480018BF95EA0C0F0CD050EA410618BF52EAC0
:100758004306D1D181EA030101F000414FF00000C6
:1007680070BD50EA410606BF1046194652EA4306D4
:1007780019D094EA0C0F02D150EA013613D195EA48
:100788000C0F05D152EA03361CBF104619460AD190
:1007980081EA030101F0004141F0FE4141F470019A
:1007A8004FF0000070BD41F0FE4141F4780170BD8A
:1007B80070B54FF0FF0C4CF4E06C1CEA11541DBFEF
:1007C8001CEA135594EA0C0F95EA0C0F00F0A7F8F1
:1007D800A4EB050481EA030E52EA03354FEA01311E
:1007E80000F088804FEA03334FF0805545EA131331
:1007F80043EA12634FEA022245EA111545EA1065F9
:100808004FEA00260EF000419D4208BF964244F18F
:10081800FD0404F5407402D25B084FEA3202B61AAE
:1008280065EB03055B084FEA32024FF480104FF482
:10083800002CB6EB020E75EB030E22BFB61A7546F6
:1008480040EA0C005B084FEA3202B6EB020E75EB89
:10085800030E22BFB61A754640EA5C005B084FEAF1
:100868003202B6EB020E75EB030E22BFB61A7546BE
:1008780040EA9C005B084FEA3202B6EB020E75EBC9
:10088800030E22BFB61A754640EADC0055EA060E8A
:1008980018D04FEA051545EA16754FEA06164FEACD
:1008A800C30343EA52734FEAC2025FEA1C1CC0D179
:1008B80011F4801F0BD141EA00014FF000004FF006
:1008C800004CB6E711F4801F04BF01430020B4F1C7
:1008D800FD0C88BFBCF5E06F3FF6AFAEB5EB030C7F
:1008E80004BFB6EB020C5FEA500C50F1000041EB7C
:1008F800045170BD0EF0004E4EEA113114EB5C0449
:10090800C2BFD4EB0C0541EA045170BD41F480111B
:100918004FF0000E013C90E645EA060E8DE60CEA23
:10092800135594EA0C0F08BF95EA0C0F3FF43BAF40
:1009380094EA0C0F0AD150EA01347FF434AF95EAF7
:100948000C0F7FF425AF104619462CE795EA0C0FDB
:1009580006D152EA03353FF4FDAE1046194622E7A8
:1009680050EA410618BF52EA43067FF4C5AE50EA82
:1009780041047FF40DAF52EA43057FF4EBAE12E772
:100988004A0011D212F5001211D20DD56FF4787306
:10099800B3EB62520ED44FEAC12343F0004343EA5B
:1009A800505323FA02F070474FF00000704750EAA6
:1009B800013002D14FF0FF3070474FF00000704710
:1009C8004FEA4102B2F1E04324BFB3F5001CDCF169
:1009D800FE5C0DD901F0004C4FEAC0024CEA5070A1
:1009E800B2F1004F40EB830008BF20F001007047D0
:1009F80011F0804F21D113F13872BCBF01F00040D3
:100A0800704741F480114FEA5252C2F11802C2F104
:100A1800200C10FA0CF320FA02F018BF40F0010085
:100A28004FEAC1234FEAD32303FA0CFC40EA0C0037
:100A380023FA02F34FEA4303CCE77FEA625307D174
:100A480050EA01331EBF4FF0FE4040F440007047AB
:100A580001F0004040F0FE4040F40000704700BF45
:100A680080F0004002E000BF81F0004142001FBF5B
:100A78005FEA410392EA030F7FEA226C7FEA236C64
:100A88006AD04FEA1262D2EB1363C1BFD218414059
:100A980048404140B8BF5B42192B88BF704710F0EF
:100AA800004F40F4000020F07F4018BF404211F092
:100AB800004F41F4000121F07F4118BF494292EAFA
:100AC800030F3FD0A2F1010241FA03FC10EB0C0026
:100AD800C3F1200301FA03F100F0004302D54942B3
:100AE80060EB4000B0F5000F13D3B0F1807F06D360
:100AF80040084FEA310102F10102FE2A51D2B1F158
:100B0800004F40EBC25008BF20F0010040EA03004C
:100B18007047490040EB000010F4000FA2F10102F9
:100B2800EDD1B0FA80FCACF1080CB2EB0C0200FA83
:100B38000CF0AABF00EBC25052421843BCBFD040D1
:100B48001843704792F0000F81F4000106BF80F44B
:100B580000000132013BB5E74FEA41037FEA226C0E
:100B680018BF7FEA236C21D092EA030F04D092F0D9
:100B7800000F08BF0846704790EA010F1CBF00200D
:100B8800704712F07F4F04D1400028BF40F000406A
:100B9800704712F100723CBF00F50000704700F08A
:100BA800004343F0FE4040F4000070477FEA2262B1
:100BB80016BF08467FEA23630146420206BF5FEA82
:100BC800412390EA010F40F4800070474FF0000382
:100BD80004E000BF10F0004348BF40425FEA000C49
:100BE80008BF704743F0964301464FF000001CE0F1
:100BF80050EA010208BF70474FF000030AE000BF47
:100C080050EA010208BF704711F0004302D5404284
:100C180061EB41015FEA010C02BF844601460020F6
:100C280043F0B64308BFA3F18053A3F50003BCFA11
:100C38008CF2083AA3EBC25310DB01FA02FC6344BE
:100C480000FA02FCC2F12002BCF1004F20FA02F2C5
:100C580043EB020008BF20F00100704702F12002B8
:100C680001FA02FCC2F1200250EA4C0021FA02F219
:100C780043EB020008BF20EADC7070474FF0FF0C1E
:100C88001CEAD0521EBF1CEAD15392EA0C0F93EA19
:100C98000C0F6FD01A4480EA010C400218BF5FEABB
:100CA80041211ED04FF0006343EA501043EA51112E
:100CB800A0FB01310CF00040B1F5000F3EBF490028
:100CC80041EAD3715B0040EA010062F17F02FD2A2C
:100CD8001DD8B3F1004F40EBC25008BF20F001000F
:100CE800704790F0000F0CF0004C08BF49024CEA26
:100CF800502040EA51207F3AC2BFD2F1FF0340EAB8
:100D0800C250704740F400004FF00003013A5DDC28
:100D180012F1190FDCBF00F000407047C2F1000269
:100D2800410021FA02F1C2F1200200FA02FC5FEA56
:100D3800310040F1000053EA4C0308BF20EADC70A0
:100D4800704792F0000F00F0004C02BF400010F412
:100D5800000F013AF9D040EA0C0093F0000F01F0BF
:100D6800004C02BF490011F4000F013BF9D041EAE1
:100D78000C018FE70CEAD15392EA0C0F18BF93EAE3
:100D88000C0F0AD030F0004C18BF31F0004CD8D10D
:100D980080EA010000F00040704790F0000F17BF94
:100DA80090F0004F084691F0000F91F0004F14D0DA
:100DB80092EA0C0F01D142020FD193EA0C0F03D132
:100DC8004B0218BF084608D180EA010000F0004035
:100DD80040F0FE4040F40000704740F0FE4040F410
:100DE800400070474FF0FF0C1CEAD0521EBF1CEAAF
:100DF800D15392EA0C0F93EA0C0F69D0A2EB0302CD
:100E080080EA010C49024FEA402037D04FF0805366
:100E180043EA111143EA10130CF000408B4238BF2B
:100E28005B0042F17D024FF4000C8B4224BF5B1A39
:100E380040EA0C00B3EB510F24BFA3EB510340EA87
:100E48005C00B3EB910F24BFA3EB910340EA9C0035
:100E5800B3EBD10F24BFA3EBD10340EADC001B01A5
:100E680018BF5FEA1C1CE0D1FD2A3FF650AF8B4249
:100E780040EBC25008BF20F0010070470CF0004C56
:100E88004CEA50207F32C2BFD2F1FF0340EAC25081
:100E9800704740F400004FF00003013A37E792F042
:100EA800000F00F0004C02BF400010F4000F013AA0
:100EB800F9D040EA0C0093F0000F01F0004C02BF9B
:100EC800490011F4000F013BF9D041EA0C0195E704
:100ED8000CEAD15392EA0C0F08D142027FF47DAF9D
:100EE80093EA0C0F7FF470AF084676E793EA0C0F8D
:100EF80004D14B023FF44CAF08466EE730F0004C8B
:100F080018BF31F0004CCAD130F000427FF45CAF1A
:100F180031F000437FF43CAF5FE700BF42000ED2E0
:100F2800B2F1FE4F0BD34FF09E03B3EB126209D41C
:100F38004FEA002343F0004323FA02F070474FF0D2
:100F48000000704712F1610F01D1420202D14FF047
:100F5800FF3070474FF00000704700BF4FF0FF3C74
:100F680006E000BF4FF0010C02E000BF4FF0010C9B
:100F78004DF804CD4FEA410C7FEA6C5C4FEA430C14
:100F880018BF7FEA6C5C1BD001B050EA410C0CBF63
:100F980052EA430C91EA030F02BF90EA020F0020C5
:100FA800704710F1000F91EA030F58BF994208BF2C
:100FB80090422CBFD8176FEAE37040F001007047E9
:100FC8004FEA410C7FEA6C5C02D150EA013C07D140
:100FD8004FEA430C7FEA6C5CD6D152EA033CD3D08B
:100FE8005DF8040B704700BF8446104662468C4685
:100FF8001946634600E000BF01B5FFF7B7FF0028B8
:1010080048BF10F1000F01BD4DF808EDFFF7F4FFE0
:101018000CBF012000205DF808FB00BF4DF808ED6B
:10102800FFF7EAFF34BF012000205DF808FB00BF8E
:101038004DF808EDFFF7E0FF94BF012000205DF8B0
:1010480008FB00BF4DF808EDFFF7CEFF94BF012065
:1010580000205DF808FB00BF4DF808EDFFF7C4FF5E
:1010680034BF012000205DF808FB00BF4FEA4102B1
:1010780012F5001215D211D56FF47873B3EB6252E2
:1010880012D94FEAC12343F0004343EA505311F009
:10109800004F23FA02F018BF404270474FF000009B
:1010A800704750EA013005D111F0004008BF6FF0D9
:1010B800004070474FF00000704700BF70470000C5
:1010C800084B10B5044618684FF47A73B0FBF3F078
:1010D80000F08EFA002221464FF0FF3000F048FA67
:1010E800002010BD5C00002008B50B4B03201A68D7
:1010F80042F400721A601A6842F480621A601A6830
:1011080042F480721A6000F021FA0020FFF7D8FF3D
:10111800FFF7D4FF002008BD003C0240024A1368D4
:1011280001331360704700BFF8140020014B1868A2
:10113800704700BFF814002010B50446002800F0DE
:101148009F80036C23B9436480F83C3001F0C0FBF6
:10115800236CDB0600F19280236C23F4885323F080
:10116800020343F002032364464B5A6822F44032D8
:101178005A605A6861680A435A60236821695A6844
:1011880022F480725A605A6842EA01225A605A6808
:10119800A16822F040725A605A680A435A609A68F5
:1011A800E16822F400629A609A680A439A603649B4
:1011B800A26A8A4256D0996821F07061996099684C
:1011C8000A439A609A68E16A22F040529A609A68E3
:1011D8000A439A609A68A16922F002029A609A68A2
:1011E80042EA41029A60226A002A43D05A6842F4CD
:1011F80000625A605A6822F460425A604FF46042B2
:1012080092FAA2F2B2FA82F1626A5868013A8A4006
:10121800024300205A60DA6AE16922F47002DA6255
:10122800DA6A013942EA0152DA629A68216B22F4D9
:1012380000729A609A6842EA41229A609A686169E3
:1012480022F480629A609A6842EA81229A60606415
:10125800236C23F0030343F001032364002384F881
:101268003C3010BD9A6822F070629A609A6822F049
:101278004052AEE75A6822F40062CAE70120EDE75F
:10128800012010BD002301400100000F002382B09F
:10129800019390F83C30012B4ED0012380F83C306C
:1012A80003689A68D10705D59A68D20714D4002034
:1012B80002B070479A68214942F001029A60204AB8
:1012C8001268B2FBF1F202EB42020192019A002A83
:1012D800EAD0019A013AF8E7026C22F4E06222F0BF
:1012E800010242F4807202645A68510541BF026CDF
:1012F80022F4405242F480520264026C12F480528A
:101308001CBF426C22F006024264002280F83C2096
:101318006FF022021A600B4A5268D20608D1986808
:1013280010F04050C3D19A6842F080429A60BFE7FB
:10133800054A9342BBD1F2E70220B9E740420F00C9
:101348005C0000200023014000200140002382B0FF
:10135800019390F83C30012B54D0012380F83C30A5
:1013680003689A68D10705D59A68D20714D4002073
:1013780002B070479A68244942F001029A60234AF1
:101388001268B2FBF1F202EB42020192019A002AC2
:10139800EAD0019A013AF8E7026C22F4E06222F0FE
:1013A800010242F4807202645A68510541BF026C1E
:1013B80022F4405242F480520264026C12F48052C9
:1013C8001CBF426C22F006024264002280F83C20D6
:1013D8006FF022021A605A6842F0806242F02002DE
:1013E8005A600B4A5268D20608D1986810F04050EB
:1013F800BDD19A6842F080429A60B9E7054A9342A3
:10140800B5D1F2E70220B3E740420F005C000020AC
:1014180000230140002001400368D86C7047000099
:101428000023F7B5019390F83C30012B00F083803E
:1014380001230D6880F83C30092D0468AEB28A6833
:101448002AD94FF0070E06EB4603E7681E3B0EFA53
:1014580003FE27EA0E07E760E76802FA03F33B4357
:10146800E3604A68062A4FEA820325D81344591FC5
:101478001F23676B8B4027EA03036363626B06FADB
:1014880001F1114361632D4B9C4234D0002380F855
:101498003C30184603B0F0BD4FF0070E276905EB46
:1014A80045030EFA03FE27EA0E072761276902FAA9
:1014B80003F33B432361D4E70C2A0ED81344A3F16A
:1014C80023021F23216B934021EA03032363236B29
:1014D80006FA02F21A432263D5E713441F22E16A8F
:1014E800413B9A4021EA0202E262E26A06FA03F10B
:1014F8001143E162C7E7122D04D1114A536843F43E
:1015080080035360A5F11003012BBFD80C4A102D9E
:10151800536843F400035360B8D10A4B0A4A1B6866
:10152800B3FBF2F20A2353430193019B002BADD086
:10153800019B013BF8E70220ACE700BF0020014017
:10154800002301405C00002040420F00074A0002CF
:10155800D36800F4E06023F4E0631B041B0C43F041
:10156800BF6343F400330343D360704700ED00E0EA
:10157800174B30B5DC68C4F30224C4F10703251DFA
:10158800042B28BF0423062D4FF0010598BF002423
:1015980005FA03F303F1FF3388BF033C1940A14068
:1015A80005FA04F4013C2240002842EA01024FEA0D
:1015B8000212AFBF00F16040064B00F00F00D2B23C
:1015C800A5BFD2B200F561401A5480F8002330BD9F
:1015D80000ED00E014ED00E00123420900F01F00D7
:1015E80003FA00F0014B43F82200704700E100E0E5
:1015F8000138B0F1807F0AD2F021064B064A5860C4
:1016080082F823100020072298601A607047012092
:10161800704700BF10E000E000ED00E0044B042834
:101628001A680CBF42F0040222F004021A607047E4
:1016380010E000E0704708B5FFF7FCFF08BD10B5E3
:10164800044668B1037903F0FF0213B9427101F04F
:1016580069F902230020237101232061237110BD41
:10166800012010BD437910B5012B4FF0020318D0AB
:1016780001220371036842711C688A4022431A6080
:1016880089B919681A684C0707D502F03802382A50
:1016980003D15A6842F001025A6001230371002302
:1016A8004371184610BD19681A684903F5D502F444
:1016B8006012B2F5601FF0D15A6842F00202EBE7FF
:1016C800437930B5012B4FF0020317D040F6FE7571
:1016D800046803712368954023EA05050AC90B438A
:1016E800C02193402B432360236801FA02F223EAC6
:1016F800020201232260037100234371184630BDA2
:1017080013B5002400680194019041B9019908318A
:1017180000200A440192019A136002B010BD019999
:101728001431F5E72DE9F04F0B6885B001930023DC
:10173800DFF8B4816A4ADFF8B4914FF0010E019CDA
:101748000EFA03FE0EEA0406B64540F0B2804C6875
:1017580024F01007022F16D14FF00F0C4FEAD30ACE
:1017680000EB8A0A03F0070BDAF820504FEA8B0BDC
:101778000CFA0BFC25EA0C0C0D6905FA0BF545EA89
:101788000C05CAF8205003254FEA430A05FA0AF562
:10179800ED43D0F800B004F0030C0BEA050B0CFA8B
:1017A8000AFC013F4CEA0B0C012FC0F800C011D80D
:1017B800876807EA050BCF6807FA0AFC4CEA0B07AB
:1017C8008760476827EA0E0EC4F300179F4047EA70
:1017D8000E074760C7683D408F6807FA0AF73D4320
:1017E800C560E50065D54FF0000B4FF00F0ECDF842
:1017F8000CB0D8F8447003F0030C47F48047C8F8DD
:101808004470D8F84470374D07F480470397039F16
:1018180023F0030707F1804707F59C37D7F808A09E
:101828004FEA8C0C0EFA0CFEA8422AEA0E0E47D09C
:1018380005F58065A84245D005F58065A84243D0E6
:1018480005F58065A84241D005F58065A8423FD0DE
:1018580048453FD005F50065A8423DD005F58065AF
:10186800A8423BD005F58065A84214BF0925082584
:1018780005FA0CF545EA0E05BD60F743156814F442
:10188800803F0CBF3D4035431560556814F4003F58
:101898000CBF3D4035435560956814F4801F0CBF5C
:1018A8003D4035439560D568A40254BF3D4035435B
:1018B800D5600133102B7FF440AF05B0BDE8F08F41
:1018C8005D46D5E70125D3E70225D1E70325CFE714
:1018D8000425CDE70525CBE70625C9E70725C7E792
:1018E800003C014000000240003802400014024061
:1018F8007047000008B5044B5969014202D058618D
:10190800FFF7F6FF08BD00BF003C01400368F7B5CC
:101918000446D80738D4236899076DD423681E076E
:1019280000F1B98023685D0728D500230193A64BF1
:10193800A64D1A6C42F080521A641B6C03F0805357
:101948000193019B2B6843F480732B60FFF7EEFB38
:1019580006462B68DA0540F1C0809D4B227A1A7042
:10196800A368002B00F0C780FFF7E0FB41F288373F
:101978000646954D2B6F9B0740F1B680A269002A59
:1019880040F0C980002015E08F4B9A6802F00C02E5
:10199800042A07D09A6802F00C02082A0CD15B6866
:1019A8005A0209D5884B1B689B03B4D56368002B82
:1019B800B1D1012003B0F0BD864B22791A7063685B
:1019C8006BB1FFF7B3FB06467F4D2B689F03A2D48C
:1019D800FFF7ACFB801B6428F7D90320EAE7FFF781
:1019E800A5FB0646784D2B68980394D5FFF79EFB18
:1019F800801B6428F7D9F0E7734B9A6812F00C0F34
:101A080007D09A6802F00C02082A16D15B685902BE
:101A180013D46D4B1A68920702D5E268012AC8D11F
:101A28001868F82292FAA2F2B2FA82F122698A4080
:101A380020F0F8010A431A6070E7E268664BDAB1F1
:101A480001221A60FFF772FB06465F4D2B689B0761
:101A58000CD52968F82393FAA3F3B3FA83F2236920
:101A6800934021F0F80213432B6057E7FFF75EFB22
:101A7800801B0228EAD9B0E71A60FFF757FB064631
:101A8800514D2B689F077FF549AFFFF74FFB801B30
:101A98000228F6D9A1E76269504B7AB101221A608F
:101AA800FFF744FB0646484D6B6F98073FF53AAF82
:101AB800FFF73CFB801B0228F6D98EE71A60FFF778
:101AC80035FB0646404D6B6F99077FF52BAFFFF747
:101AD8002DFB801B0228F6D97FE7FFF727FB801B29
:101AE80002287FF636AF78E7FFF720FB801BB84265
:101AF8007FF640AF71E7FFF719FB41F288370646DA
:101B0800314D2B6F98077FF539AFFFF70FFB801B1F
:101B1800B842F6D961E72C4DAB6803F00C03082BEB
:101B28003FF447AF00232E4E022A33603ED1FFF721
:101B3800FDFA07462B68990132D447F6C07797FA21
:101B4800A7F74FF44032B7FA87F792FAA2F24FF0AC
:101B58007061B2FA82F091FAA1F1B1FA81F1226AC8
:101B6800E3691343626A02FA07F7A26A3B43520821
:101B7800013A82401343E26A134C02FA01F10B4323
:101B88006B6001233360FFF7D1FA054623689A0199
:101B98003FF5F8AEFFF7CAFA401B6428F6D91CE7F0
:101BA800FFF7C4FAC01B6428C4D916E7FFF7BEFACA
:101BB80004462B689B017FF5E5AEFFF7B7FA001BDB
:101BC8006428F6D909E700BF0038024000700040D9
:101BD800703802400238024000004742800E4742F7
:101BE80060004742194A10B5936803F00C03042BB0
:101BF80003D0082B03D0164810BD164810BD5168F5
:101C0800536801F03F0113F4800F47F6C07453681E
:101C180094FAA4F0B0FA80F003EA040323FA00F37C
:101C280014BF0C480A484FF44032B0FBF1F0584357
:101C3800064B5B6892FAA2F2B2FA82F203F44033DE
:101C4800D34001335B00B0FBF3F010BD0038024015
:101C58000024F40040787D014E4B2DE9F0411A68CC
:101C6800044602F00F028A420D462ED322689607D8
:101C780035D4D0073BD4474B1A6802F00F0295427F
:101C880077D3226851077CD4130707D5424A2169C4
:101C9800936823F4604343EAC1039360FFF7A2FF0C
:101CA8003D4BF0229B6892FAA2F2B2FA82F203F05C
:101CB800F003D340394AD35CD840394B1860002030
:101CC800FFF7FEF90020BDE8F081CAB21A701B6860
:101CD80003F00F039942C9D00120BDE8F0812E49D5
:101CE800A0688B6823F0F00303438B60C1E7616849
:101CF800294B01291A681DD112F4003FECD09A68CB
:101D0800254F22F003020A439A60FFF70FFA63682F
:101D18000646012B41F2883814D1BB6803F00C0346
:101D2800042BA8D0FFF702FA801B4045F5D9032001
:101D3800BDE8F081022902D112F0007FDEE712F03F
:101D4800020FDBE7022B0FD1BB6803F00C03082B53
:101D580091D0FFF7EBF9801B4045F5D9E7E7FFF78E
:101D6800E5F9801B4045E2D8BB6813F00C0FF6D1AB
:101D780081E7EAB21A701B6803F00F039D42ABD1EA
:101D88007FE70549E0688B6823F4E05303438B60E1
:101D98007AE700BF003C0240003802408841000852
:101DA8005C000020014B1868704700BF5C000020F1
:101DB800084B4FF4E0529B6892FAA2F2B2FA82F210
:101DC80003F4E053D340044AD35C044A1068D84073
:101DD800704700BF00380240984100085C000020AE
:101DE800084B4FF460429B6892FAA2F2B2FA82F270
:101DF80003F46043D340044AD35C044A1068D840D3
:101E0800704700BF00380240984100085C0000207D
:101E1800036A70B523F001030362036A42688469A8
:101E28000D6824F0730425438C6823F002032343D0
:101E38000C4CA04209D004F58064A04205D0426051
:101E48004A6885614263036270BDCC6823F0080369
:101E580023438E694C6922F44072344323F004030F
:101E68002243ECE700000140036A70B523F4807355
:101E78000362036A4268C4690D6824F07304254349
:101E88008C6823F4007343EA04230E4CA04209D063
:101E980004F58064A04205D042604A68C561C26307
:101EA800036270BDCC6823F4006343EA04238E699F
:101EB8004C6922F44052344323F4806342EA04120A
:101EC800EAE700BF00000140036A30B523F48053FD
:101ED8000362046A4368C2690D6822F4E64242EA72
:101EE80005228D6824F4005444EA0534094DA842BB
:101EF80009D005F58065A84205D043604B68C261EA
:101F08000364046230BD4D6923F4804343EA8513BA
:101F1800F3E700BF0000014003680020DA6842F0E0
:101F28000102DA601A6842F001021A6070477047CD
:101F380090F83C3070B5012B4FF002031CD0012201
:101F480080F83D30036880F83C209A6822F47F428C
:101F580022F077029A600A68402A79D019D8102AA4
:101F680000F093800AD8002A00F08980012380F8C5
:101F78003D30002380F83C30184670BD202A00F020
:101F88008A80302AF2D19A6822F0700242F0370231
:101F980036E0702A36D01BD8502A42D0602AE5D1C4
:101FA8001C6A4D6824F01004CE681C6299691A6A8C
:101FB80021F4704122F0A00242EA051241EA0631FA
:101FC80099611A629A6822F0700242F0670217E07B
:101FD800B2F5805F11D0B2F5005FC7D18A684D684D
:101FE8009C68C9682A4324F47F4442EA01222243B8
:101FF8009A609A6842F4804202E09A6822F00702E6
:102008009A60B3E78A684D689C68C9682A4324F4D3
:102018007F4442EA012222439A609A6842F077029A
:10202800EEE74C68CE68196A1D6A21F00A0125F0AE
:1020380001051D629A69214322F0F00242EA061264
:102048009A6119629A6822F0700242F05702D7E743
:102058004C68CE68196A1D6A21F00A0125F001054D
:102068001D629A69214322F0F00242EA06129A613F
:1020780019629A6822F0700242F04702C0E79A6833
:1020880022F0700242F00702BAE79A6822F0700262
:1020980042F01702B4E79A6822F0700242F0270271
:1020A800AEE70000304A0368904212D0B0F1804F8A
:1020B8000FD0A2F57C4290420BD002F5806290428C
:1020C80007D002F58062904203D002F57842904230
:1020D8001DD14A6823F070031343234A904204D168
:1020E800CA6823F44073134328E0B0F1804FF7D057
:1020F8001E4A9042F4D002F580629042F0D002F578
:1021080080629042ECD002F578429042E8D0184ABA
:102118009042E5D002F580629042E1D002F58062FB
:102128009042DDD0A2F598329042D9D002F5806273
:102138009042D5D002F580629042D1D04A6923F00E
:102148008003134303608B68C3620B688362064B8A
:10215800984206D003F58063984202D00123436178
:1021680070470B690363F9E7000001400004004071
:102178000040014010B50446A0B190F83D3003F08E
:10218800FF021BB980F83C2000F0EAFB022320681C
:1021980084F83D30211DFFF785FF0123002084F8D6
:1021A8003D3010BD012010BD10B50446A0B190F817
:1021B8003D3003F0FF021BB980F83C20FFF7B7FE63
:1021C8000223206884F83D30211DFFF76BFF0123AF
:1021D800002084F83D3010BD012010BD036A70B5A1
:1021E80023F010030362036A426884690D6824F4CB
:1021F800E64444EA05258C6823F0200343EA0413E7
:102208000D4CA04209D004F58064A04205D042607C
:102218004A6885618263036270BDCC6823F08003DD
:1022280043EA04138E694C6922F44062344323F074
:10223800400342EA8402EAE70000014038B590F81A
:102248003C300446012B4FF0020018D0012384F8DB
:102258003D0084F83C301D460C2A0BD8DFE802F01C
:10226800070A0A0A100A0A0A140A0A0A1800206841
:10227800FFF7CEFD002084F83D5084F83C0038BDBF
:102288002068FFF7ABFFF5E72068FFF7EDFDF1E702
:102298002068FFF719FEEDE790F83C3010B5012BE8
:1022A8004FF0020318D080F83D3003680C685A6874
:1022B800496822F070025A605A6822435A609A6844
:1022C80022F080029A609A680A439A60012380F893
:1022D8003D30002380F83C30184610BD2DE9F0470A
:1022E80004460668C2683369C16923F4405313433E
:1022F800336183680069F2680343606922F4164217
:10230800034322F00C020B431343F3607369A26981
:1023180023F440731343B1F5004F73617A4B7CD1BA
:102328009E4203D003F580639E4244D1FFF758FDD7
:10233800192505FB00F360684FF064094000B3FB02
:10234800F0F3B3FBF9F34FEA0318FFF749FD6843CD
:1023580063685B00B0FBF3F7FFF742FD684363680F
:102368005B00B0FBF3F3B3FBF9F309FB1373DB007A
:102378003233B3FBF9F35B0003F4F877FFF730FD72
:10238800684362685200B0FBF2FAFFF729FD684320
:1023980063685B00B0FBF3F3B3FBF9F309FB13A32A
:1023A800DB003233B3FBF9F303F0070343443B4448
:1023B800B360BDE8F087FFF7FBFC192505FB00F3C8
:1023C80060684FF064094000B3FBF0F3B3FBF9F326
:1023D8004FEA0318FFF7ECFC684363685B00B0FB47
:1023E800F3F7FFF7E5FC684363685B00B0FBF3F3C2
:1023F800B3FBF9F309FB1373DB003233B3FBF9F3D7
:102408005B0003F4F877FFF7D3FC68436268520077
:10241800B0FBF2FAFFF7CCFCB9E79E4202D03B4B87
:102428009E4240D1FFF7DCFC192505FB00F36768E5
:102438004FF06409BF00B3FBF7F3B3FBF9F31F01D7
:10244800FFF7CEFC684363689B00B0FBF3F8FFF727
:10245800C7FC684363689B00B0FBF3F3B3FBF9F375
:1024680009FB13831B013233B3FBF9F303F0F008C4
:10247800FFF7B6FC684362689200B0FBF2FAFFF718
:10248800AFFC684363689B00B0FBF3F3B3FBF9F35D
:1024980009FB13A31B013233B3FBF9F303F00F035A
:1024A80043EA080383E7FFF783FC192505FB00F3DC
:1024B80067684FF06409BF00B3FBF7F3B3FBF9F3A8
:1024C8001F01FFF775FC684363689B00B0FBF3F8D6
:1024D800FFF76EFC684363689B00B0FBF3F3B3FB44
:1024E800F9F309FB13831B013233B3FBF9F303F050
:1024F800F008FFF75DFC684362689200B0FBF2FAEF
:10250800FFF756FCBDE700BF001001400014014072
:1025180010B5044640B390F8393003F0FF021BB9F8
:1025280080F8382000F07EFB2423226884F83930B4
:10253800D368204623F40053D360FFF7CFFE236807
:1025480000201A6922F490421A615A6922F02A027C
:102558005A61DA6842F40052DA602023E06384F8B2
:10256800393084F83A3010BD012010BDDFF834D07E
:10257800002103E00C4B5B58435004310B480C4BD3
:1025880042189A42F6D30B4A02E0002342F8043B71
:10259800094B9A42F9D300F06FFB00F09BFB00F067
:1025A8004DF87047005000208C43000800000020C0
:1025B8008C0400208C040020B41A0020FEE70000E0
:1025C80000B593B001230693079302230C934FF4AD
:1025D80080020D9214220E92C0220F9210930423AF
:1025E800119306A8FFF792F920BB0F23019302234A
:1025F8000293002303934FF4A05304934FF48053A2
:102608000593032101A8FFF727FBA0B9FFF7CAFB31
:10261800094BA3FB00308009FEF7EAFF0420FEF710
:10262800FDFF002211464FF0FF30FEF7A1FF13B067
:102638005DF804FBFEE7FEE7D34D621030B591B0BC
:10264800FEF752FDFFF7BCFF002400948E4B1A6B77
:1026580042F080021A631A6B02F080020092009A1C
:1026680001941A6B42F001021A631A6B02F001021C
:102678000192019A02941A6B42F001021A631B6BD1
:1026880003F001030293029B042309937F4B0A93EF
:102698000B9409A97E48FFF745F8224621460820F1
:1026A800FEF766FF0820FEF797FF7A487A4B03602B
:1026B8004FF48033436084600461012383610462C2
:1026C800C462764A8262C460C36104634461FEF7EF
:1026D80033FD002840F0CA800023099301230A93A0
:1026E80002230B9309A96B48FEF79AFE002840F0D5
:1026F800BE806848FEF7CAFD69486A4B0360FEF76A
:102708009EFF002840F0B480002209920A9209A98D
:102718006348FEF7D5FF002840F0AB80102209A9D6
:102728005F48FEF7CDFF002840F0A4805E484FF0D8
:102738008043036000234360836042F66632C260D0
:10274800036180238361FFF715FD002840F0938023
:1027580010A94FF4805341F82C3D5348FFF7E8FB8C
:10276800002840F089805048FFF71EFD002840F0FF
:102778008480202303938023049303A94A48FFF706
:102788008BFD00287AD1002209920A920B920D92B1
:1027980009A94548FFF752FD002870D1042209A96C
:1027A8004148FFF74BFD00286AD1082209A93E4895
:1027B800FFF744FD002864D10C2209A93A48FFF725
:1027C8003DFD00285ED13948394B03604FF416535C
:1027D800436000238360C36003610C22426183610C
:1027E800C361FFF795FE00284DD12D4C00212046EE
:1027F800FEF738FF10212046FEF734FF4FF4006340
:10280800002211462046FEF77BFF4FF400630022AA
:1028180010212046FEF774FF00230593059B132B18
:1028280015DC244B196800220992099BB3F5FA6F4D
:1028380006DA099B01330993099BB3F5FA6FF8DBB4
:102848000D44059B01330593059B132BECDD1A48BA
:10285800A0FB05300009FEF7B9F91849FEF70EFA92
:10286800174B18601048FFF757FBFEE7FEE7FEE737
:10287800FEE7FEE7FEE7FEE7FEE7FEE7FEE7FEE728
:10288800FEE7FEE7FEE7FEE7003802400000111011
:102898000000024000150020002001400100000F48
:1028A800381A0020007400404C1A0020F819002043
:1028B800001001408C1A0020CDCCCCCC3333533AD5
:1028C800FC14002008B5FEF729FCFEF7B4FE08BD8D
:1028D80070B586B0064600240094104B5A6C42F43A
:1028E80080725A645B6C03F480730093009B01252B
:1028F800019503230293039401A90948FEF712FFE7
:102908003046FEF723FD224629461220FEF730FE08
:102918001220FEF761FE06B070BD00BF003802400D
:102928000000024000B587B0002100910A4B1A6CE4
:1029380042F000521A641B6C03F000530093009B92
:102948003023019303230293039101A90348FEF75F
:10295800E9FE07B05DF804FB0038024000000240C1
:1029680000B583B000210191094B1A6C42F00102B5
:102978001A641B6C03F001030193019B0A461C2097
:10298800FEF7F6FD1C20FEF727FE03B05DF804FBFA
:1029980000380240000000002DE9F04383B0002415
:1029A8006F4B1C706F4D2878FDF772FD68A3D3E953
:1029B8000023FDF7D3FD00F045FA06460F466A4BA3
:1029C8001888FEF703F9FDF775FD32463B46FDF71B
:1029D800C5FD06460F466549654B1868FEF74EF972
:1029E800FDF768FD02460B4630463946FDF704FC04
:1029F800FDF7C6FF83B2224621465E48FEF780FEF9
:102A08005D4B1B686FF001021A612C7864B3661E77
:102A18005A4F57F82650DFF870816A1E58F826007A
:102A2800574B1B6800FB0230FEF7D0F8814628465A
:102A3800FEF7CCF801464846FEF7D4F9FEF76EFAE1
:102A480048F82600013547F826500134E4B2142C22
:102A580007D10022434B1A704A4A136801331360A6
:102A68001DE0404B1C701AE0444DEC6C464E621E53
:102A7800F06C434B1B6800FB0230FEF7A7F80746D3
:102A88002046FEF7A3F801463846FEF7ABF9FEF7F5
:102A980045FAF0640134EC640122324B1A70394B68
:102AA8001B68192B02D003B0BDE8F0830023354A18
:102AB80013600193344A02F1280052F8041B019B69
:102AC8000B4401938242F8D12F4800F124024C3084
:102AD800019B52F8041F5B1A01938242F8D1019BB3
:102AE800002B24DB019A284B1B6A9B1A1A46002BE1
:102AF800B8BF5B42782B0DD9002A1CDD1C4C20681E
:102B0800FDF7D8FC14A3D3E90023FDF775FBFDF707
:102B180057FF206019490B1F1C4A4C310124002023
:102B280043F8044F42F8040F8B42F9D1BBE7019BED
:102B38005B420193D6E70E4C2068FDF7BBFC06A369
:102B4800D3E90023FDF756FBFDF73AFF2060E1E7E4
:102B58007F6ABC749318D43F7B14AE47E17A843FF4
:102B6800A8040020B004002004000020CA269B44CA
:102B780000000020381A00204C1A00200C00002009
:102B88008C1A0020B4040020B8040020B4040020EB
:102B980038B51048FEF740FC0F4B1B788BB10F4C33
:102BA8002268531E0E490D6805FB0300B0FBF2F0C6
:102BB800013222600860074B1B686FF012021A602E
:102BC80038BD0222054B1A60FF22034B1A70044BD2
:102BD800186038BD00150020A80400200800002057
:102BE8008C1A002008B50C4B1B68B3F57F7F07D300
:102BF800094A1368002BFCD10420FEF77BFE08BDB0
:102C0800054B1968054A1068054A42F821001A68F8
:102C180001321A60F0E700BFAC0400200000002079
:102C2800080500200268114B9A4200D0704700B591
:102C380087B0002300930E4B5A6C42F010025A647E
:102C48005B6C03F010030093009BC02301930223E5
:102C5800029301230393032304930723059301A9F4
:102C68000448FEF75FFD07B05DF804FB0010014063
:102C7800003802400004024080B400AF124A124BF0
:102C88001B6843F0010313600F4B00229A600E4A41
:102C98000D4B1B6823F0847323F4803313600A4BB5
:102CA8000A4A5A60084A084B1B6823F480231360B9
:102CB800054B0022DA60064B4FF000629A6000BFB5
:102CC800BD4680BC704700BF003802401030002469
:102CD80000ED00E070B50F4E0F4D761BB61018BF13
:102CE800002405D0013455F8043B9847A642F9D191
:102CF8000A4E0B4D01F036FA761BB61018BF0024A9
:102D080006D0013455F8043B9847A642F9D170BD66
:102D180070BD00BF80430008804300088843000856
:102D280080430008024B13B1024800F005B8704711
:102D3800000000004D2D0008002301461A461846E1
:102D480000F01EB838B50A4C0A4D641BA4100AD00E
:102D580004F18043013B05EB8305013C55F8043938
:102D68009847002CF9D1BDE8384001F001BA00BFFE
:102D78008C43000888430008704700BF704700BFB5
:102D88002DE9F8432C4D0646286898460F4691468B
:102D9800FFF7F2FF294B1C68D4F84831002B3ED0CE
:102DA8005A681F2A1CDC02F1010E76B1012103EBDF
:102DB8008204C4F88890D3F8880191400843022E11
:102DC800C3F88801C4F8088123D00232C3F804E0AC
:102DD800286843F82270FFF7D1FF0020BDE8F88388
:102DE800174B0BB34FF4C870AFF300800346D8B14C
:102DF8000020D4F848114FF0010E586019600246BF
:102E0800C4F84831C3F88801C3F88C01002EDCD01F
:102E1800CCE7D3F88C010143C3F88C11D5E704F54E
:102E2800A673C4F84831BBE72868FFF7A7FF4FF03F
:102E3800FF30BDE8F88300BF88040020A0410008E7
:102E48000000000030B5214A21F00043934287B0CA
:102E58001BDD1F4A934205DD02460B46FDF7CAF902
:102E680007B030BD02AA00F037F800F003000128CF
:102E78001ED0022811D0DDE9042300B3DDE90201E8
:102E880000F042FA01F10041EAE7002400220023A1
:102E9800009400F0A5FF07B030BD0124DDE904234C
:102EA800DDE90201009400F09BFF01F10041D7E742
:102EB800DDE90423DDE9020100F026FAD0E7012468
:102EC800DDE90201009400F08BFFC9E7FB21E93F2F
:102ED800FFFFEF7F000000002DE9F04F984C21F034
:102EE8000047A7428FB040F38A801446954A0D46A2
:102EF800974226DC88A3D3E90023002940F3A88160
:102F0800FDF778F9904B80469F42894600F08C8007
:102F180083A3D3E90023FDF76DF902460B4640462B
:102F2800C4E900234946FDF765F97DA3D3E90023E9
:102F3800FDF760F90126C4E9020130460FB0BDE88B
:102F4800F08F824A974240F38C80814A974261DC35
:102F58004FEA275AAAF2164AA7EB0A518946804631
:102F6800FEF784F8FDF794FA06460F4632463B46CC
:102F780040464946CDE90867FDF73CF90022754B04
:102F8800FDF7ECFA89468046FEF770F8FDF780FAFF
:102F980006460F4632463B4640464946CDE90A6753
:102FA800FDF728F900226B4BFDF7D8FA0022002321
:102FB800CDE90C01FEF728F8002800F0678100230E
:102FC800304639460022FEF71FF8002814BF0123B7
:102FD80002230220604952468DE80300214608A8D2
:102FE80000F0B6FA002D064610DA6268E36802F1CE
:102FF800004203F1004346426260E36006E00024B9
:1030080000250026C2E90245C2E9000130460FB09A
:10301800BDE8F08F02460B46FDF7ECF80026C4E940
:103028000201C4E90001F1E73FA3D3E90023FDF75A
:10303800E1F83FA3D3E9002306460F46FDF7DAF887
:1030480002460B463046C4E900233946FDF7D2F85C
:1030580037A3D3E90023FDF7CDF80126C4E902011F
:10306800D4E700F073FF34A3D3E9002380468946F0
:10307800FDF774FA0022394BFDF7BEF8FDF7F6FFAD
:103088000646FDF705FA24A3D3E90023CDE9040198
:10309800FDF764FA02460B4640464946FDF7AAF892
:1030A8001FA3D3E9002382468B46DDE90401FDF71F
:1030B80055FA1F2ECDE9020154DC294B721E53F834
:1030C80022309F424ED002460B4650465946FDF7E5
:1030D80091F802460B4681468846C4E900234A46D1
:1030E800434650465946FDF785F8DDE90223FDF7CA
:1030F80081F802460B46002DC4E9022386DA4A46C7
:1031080008F1004301F1004184E80C00E160A0608F
:1031180076427BE7AFF3008000004054FB21F93F83
:103128003163621A61B4D03D0000601A61B4D03DC9
:103138007370032E8A19A33B83C8C96D305FE43FBF
:10314800FB21E93F7BD90240FB21F93FFB213941B3
:10315800FFFFEF7F00007041244200080000E03FBD
:10316800A4410008DDE9022350465946FDF742F81C
:103178003F15C1F30A53FB1A102B81468846C4E950
:103188000001ACDD54A3D3E90023DDE90401FDF718
:10319800E5F98046894602460B4650465946FDF7F2
:1031A80029F8CDE9060102460B4650465946FDF777
:1031B80021F842464B46FDF71DF849A3D3E9002301
:1031C80080468946DDE90401FDF7C8F942464B46C9
:1031D800FDF710F802460B46CDE90201DDE90601CC
:1031E800FDF708F80B4602468846C1F30A517F1AD4
:1031F800312F8146C4E9002368DD3BA3D3E90023CE
:10320800DDE90401FDF7AAF98046894602460B4626
:10321800DDE90601FCF7EEFF02460B4682468B46C7
:10322800DDE90601FCF7E6FF42464B46FCF7E2FF04
:103238002FA3D3E9002380468946DDE90401FDF781
:103248008DF942464B46FCF7D5FFCDE902013AE736
:10325800FCF7D2FF2A4B80469F42894618D026A306
:10326800D3E90023FCF7C8FF02460B464046C4E9F1
:1032780000234946FCF7BEFF1FA3D3E90023FCF750
:10328800BBFF4FF0FF36C4E90201BFE60323A0E607
:1032980011A3D3E90023FCF7AFFF11A3D3E900235F
:1032A80006460F46FCF7A8FF02460B463046C4E91F
:1032B80000233946FCF79EFF09A3D3E90023FCF756
:1032C8009BFF4FF0FF36C4E902019FE6DDE906AB3C
:1032D80005E700BFAFF300800000601A61B4D03D7D
:1032E8007370032E8A19A33B0000002E8A19A33B92
:1032F800C14920259A837B393163621A61B4D03D74
:10330800FB21F93F000000002DE9F04F21F00046B5
:10331800B6F1795F85B00C4692469B4605466BDA56
:10332800FDF7A4FE002800F0E7802A462346284639
:103338002146FDF713F974A3D3E900238046894693
:10334800FDF70CF972A3D3E90023FCF755FF4246B9
:103358004B46FDF703F970A3D3E90023FCF74AFFB6
:1033680042464B46FDF7FAF86DA3D3E90023FCF774
:1033780043FF42464B46FDF7F1F86BA3D3E9002320
:10338800FCF738FF42464B46FDF7E8F868A3D3E957
:103398000023FCF731FF42464B46FDF7DFF8CDE945
:1033A80000010022644B40464946FDF7D7F8DDE9A5
:1033B800002306460F4640464946FDF7CFF85246D9
:1033C800804689465B4628462146FDF7C7F80246EF
:1033D8000B4640464946FCF70DFF02460B46304671
:1033E8003946FCF707FF02460B4600205349FCF715
:1033F80001FF05B0BDE8F08F02460B46FDF7AEF8B9
:1034080041A3D3E9002380468946FDF7A7F840A3E6
:10341800D3E90023FCF7F0FE42464B46FDF79EF841
:103428003DA3D3E90023FCF7E5FE42464B46FDF7F2
:1034380095F83BA3D3E90023FCF7DEFE42464B4652
:10344800FDF78CF838A3D3E90023FCF7D3FE4246F6
:103458004B46FDF783F836A3D3E90023FCF7CCFEEF
:103468004B464246FDF77AF8354BCDE900019E42BE
:1034780097DD344B00229E4238DCA6F5001300206D
:103488002E4916461F46FCF7B5FECDE9020100227B
:10349800294B40464946FDF761F832463B46FCF762
:1034A800A9FEDDE9002306460F4640464946FDF7DA
:1034B80055F85246804689465B4628462146FDF720
:1034C8004DF802460B4640464946FCF793FE024635
:1034D8000B4630463946FCF78DFE02460B46DDE9C1
:1034E8000201FCF787FE05B0BDE8F08F164B0026F9
:1034F800CDE90223154FCAE70020104905B0BDE801
:10350800F08F00BFAFF30080D43888BEE9FAA8BDB9
:10351800C4B1B4BD9EEE213EAD529C804F7E923E1A
:103528009015CB19A001FA3E7751C1166CC1563FD0
:103538004C5555555555A53F0000E03F0000F03F5C
:103548003233D33F0000E93F0000E73F0000D23F9D
:103558002DE9F04F1F46ADF5197D9B4C0893D31EFE
:1035680084FB0354DB17C3EBA403A29E974C23EA06
:10357800E37554F826406B1CA3EB8303264602EB45
:10358800C30305947C1E04932346099502942C1BBF
:10359800F518039006911AD425444FF000084FF00F
:1035A800000901351EAEA39F08E057F82400FCF778
:1035B8006FFF0134AC42E6E9020108D0002CF4DACE
:1035C800404649460134AC42E6E90201F6D1059B82
:1035D800002B2EDB089B70AA4FEAC309039BA9F1B5
:1035E8000808984420AB9944059B0DF5DC7A02EB5A
:1035F800C30B029B002BC0F20C834D46002600270C
:10360800039BA3F1080475E90223F4E90201FCF71E
:10361800A5FF02460B4630463946FCF7EDFD44450A
:1036280006460F46EFD1EAE90267DA4509F10809CB
:10363800DFD1059B0CA8009303F18043013B9B005D
:10364800089A191F034402F100520B93039B013A95
:1036580001440A9103EBC20B009A98A901EBC2033B
:10366800002A53E9284513462BDD01EBC308A8F1CE
:10367800A8080DF12C090DF5DC7A0022544B2046E0
:103688002946FCF76BFFFDF7F1FCFCF701FF002270
:10369800504B06460F46FCF761FF02460B46204694
:1036A8002946FCF7A7FDFDF7E1FC78E8022349F875
:1036B800040F39463046FCF79FFDD04504460D46B9
:1036C800DBD1DDF81090204629464A4600F0D0FCB0
:1036D80000224FF07F5304460D46FCF73FFF00F0F1
:1036E8003BFC00223C4BFCF739FF02460B462046C8
:1036F8002946FCF77FFD0D460446FDF7B7FC8046DA
:10370800FCF7C6FE0B46024629462046FCF772FD2A
:103718004B46002B06460F4640F3F580009AC9F148
:103728001803511E0CAA52F821500CA845FA03F2AE
:1037380002FA03F3ED1AC9F1170340F82150904437
:103748001D41002D62DD009B08F10108002B40F3AC
:103758007F820C9C002C00F01883012000230CAA07
:10376800C4F1807442F82340009A824219DD6FF058
:103778007F410CAA52F820200CAC8A1A44F8202069
:10378800009A02339A420CDD0CAA02EB8303009ADA
:103798000CA800EB82001A688A1A43F8042B8342AB
:1037A800F9D1049B002B19DD049B0124012B40F067
:1037B8005782009B0CA95A1E0CAB53F82230C3F356
:1037C800160341F8223057E2ABAAAA2A7043000830
:1037D8000000703E0000704100002040022D15D10D
:1037E80032463B4600209849FCF704FD06460F4642
:1037F800049A0020944900F03BFC02460B463046F0
:103808003946FCF7F7FC022506460F46002200233E
:1038180030463946FDF7F8FB002800F05182009940
:10382800059B481E83420FDC002201F18043013BC7
:103838000CA90B9C01EB830353F80419A34242EA39
:103848000102F9D1002A6FD1059B0CAA013B52F85D
:103858002330002B40F0328201230A9A52F80419CF
:1038680001330029FAD0009AD31802F1010A9A45C7
:1038780007933DDC009B0899099A0B4499460799E0
:103888000AEB020820AB08F1804803EBC9098B1842
:10389800A39A08F1FF3802EB880870AA02EBCA0A5B
:1038A800A39A02EB8303009358F8040FFCF7F0FD8A
:1038B800029BE9E80201002B1DDB4D46002600278C
:1038C800039BA3F1080475E90223F4E90201FCF75C
:1038D80045FE02460B4630463946FCF78DFC5C45F2
:1038E80006460F46EFD1009BEAE802679845DBD110
:1038F800079B0093B0E600260027009BEAE80267D2
:103908009845D1D1F4E706D1009B0CAA013B52F8A7
:103918002350ED1515E700224C4BFDF793FB0028CB
:1039280040F08181054671E70CA951F820300499CF
:1039380002951839CDF81C800246009004916BB9A5
:1039480000F18043013B0CA800EB830353F8040902
:10395800013A18390028F9D000920491049A0020FD
:10396800394900F085FB009B0446002B0D46C0F248
:1039780004824FF00008DA0070A901EB020B0492F0
:103988000CAA02EB8306DFF8C8900BF1080704368F
:1039980056F8040DFCF77CFD22462B46FCF7DEFDAD
:1039A8004B4667E90201424620462946FCF7D6FD08
:1039B8000CAB9E4204460D46EAD14FF000090DF5C6
:1039C800907ACDF80CA0DDF814A0BAF1000FC0F27F
:1039D8003C811BA1D1E90001DFF878805D46002613
:1039E8000027002403E04C4510DCF8E80201F5E864
:1039F8000223FCF7B3FD02460B4630463946FCF776
:103A0800FBFB0134A24506460F46ECDA039BABF1FB
:103A1800080B03EBC903C3E900676EAB5B4509F10B
:103A28000109D2D1A29BDDF80CA0032B00F28D80F6
:103A3800DFE813F0D000920092001200AFF300808C
:103A480000000040FB21F93F0000F03F0000E03F8C
:103A58000000703E38430008009B002B40F3A38110
:103A6800049BD34653449846D3E9006758E9029A21
:103A780032463B4648465146FCF7BEFB04460D46D7
:103A880002460B4648465146FCF7B4FB32463B46D5
:103A9800FCF7B2FBC8E9000168E90245C3452646C0
:103AA8002F46E3D1009BDA46012B40F37C81049B2F
:103AB8005B449846D3E9006799460DF5947B59E92C
:103AC80002341846214632463B46CDE90001FCF750
:103AD80093FB04460D4602460B46DDE90001FCF760
:103AE80089FB32463B46FCF787FBC9E9000169E9D7
:103AF8000245CB4526462F46E1D100231D4608F155
:103B080008084CAC184678E902232946FCF774FBF0
:103B1800444503460D46F5D1029A002A00F01F815C
:103B2800DAF80440DAF80C20069FDAF80010DAF820
:103B3800080005F1004504F1004402F100427D61EE
:103B48003B617C60FA603960B860079B03F007004E
:103B58000DF5197DBDE8F08F00242146049D083538
:103B6800554475E902232046FCF746FB55450446B3
:103B7800F7D1029B002B00F0DB80069F01F1004586
:103B88000B46DAE9000187E830002246FCF732FBF1
:103B9800009B0646002B0D460EDD0124FAE90223A0
:103BA80030462946FCF728FB009B0134A342064611
:103BB8000D46F3DA029B0BB105F1004532462B4660
:103BC8000699C1E90223079B03F007000DF5197D4B
:103BD800BDE8F08F00231C46049D0835554418465F
:103BE80075E902232146FCF707FBAA4503460C4664
:103BF800F5D1029A0AB104F1004418462146069B01
:103C0800C3E90001079B03F007000DF5197DBDE826
:103C1800F08F00260027EAE90267DA4509F108096A
:103C28007FF4E7AC05E5009B08F10108002BC8BF4D
:103C380002253FF78EAD32463B4600206449FCF72B
:103C4800D9FA022506460F46E0E500260027DDE6FC
:103C5800049B002B26DD0024049B012B3FF4A9AD17
:103C6800022B09D1009B0CA95A1E0CAB53F8223029
:103C7800C3F3150341F82230022D7FF4C7AD324655
:103C88003B4600205249FCF7B5FA06460F46002C81
:103C98003FF4BCADACE50099013399427AD1049B5D
:103CA800002BD9DC022D7FF4B1AD32463B46002013
:103CB8004749FCF79FFA06460F46A7E50123D2E5D8
:103CC8003946049F30467A420295CDF81C8000F0B0
:103CD800CFF900223F4B04460D46FDF7B3F9002803
:103CE80064D000223C4B20462946FCF737FCFDF700
:103CF800BDF90646FCF7CCFB0022364BFCF72EFC40
:103D080002460B4620462946FCF774FAFDF7AEF941
:103D180000990B4601331A4600933B461833049327
:103D28000B460CA941F82300134641F8236015E619
:103D380026460F462246069C0B46DAE90001C4E9EE
:103D48000067FCF757FA009B0646002B0D463FF725
:103D580024AF32462B460699C1E9022333E71846B9
:103D6800DAE90067DAE902232946069DC5E9006712
:103D7800C5E90401C5E90223E7E6A29B032B3FF648
:103D8800E4AEDFE803F0211C1C0E009B012B86DD4E
:103D980001230CAA52F8044F002C3FF47CAF581CA6
:103DA800DDE40DF5907A00231D46B5E62046294648
:103DB800FDF75CF9009B0CAA42F82300CEE500242D
:103DC8000DF5907A2146D4E600231C4611E700BF82
:103DD8000000F03F000070410000703E000000004D
:103DE8002DE9F04F21F00046B6F1795F85B00C4619
:103DF80090469946054604DAFDF738F9002800F0A0
:103E080085802A46234628462146FCF7A7FB064616
:103E18000F4602460B4628462146FCF79FFB3EA369
:103E2800D3E9002382468B4630463946FCF796FB99
:103E38003BA3D3E90023FCF7DDF932463B46FCF708
:103E48008DFB39A3D3E90023FCF7D6F932463B466C
:103E5800FCF784FB36A3D3E90023FCF7CBF9324601
:103E68003B46FCF77BFB34A3D3E90023FCF7C4F9FA
:103E78000E9BCDE900019BB30022334B40464946D7
:103E8800FCF76CFBDDE90023CDE9020150465946F9
:103E9800FCF764FB02460B46DDE90201FCF7AAF9D0
:103EA80032463B46FCF75AFB42464B46FCF7A2F922
:103EB80023A3D3E9002306460F4650465946FCF78C
:103EC8004DFB02460B4630463946FCF795F902464B
:103ED8000B4628462146FCF78DF905B0BDE8F08F62
:103EE80002460B4630463946FCF738FB14A3D3E9A3
:103EF8000023FCF77FF952465B46FCF72FFB2A4666
:103F08002346FCF779F905B0BDE8F08F284621462D
:103F180005B0BDE8F08F00BF7CD5CF5A3AD9E53D52
:103F2800EB9C2B8AE6E55A3E7DFEB157E31DC73E62
:103F3800D561C119A0012A3FA6F810111111813FBE
:103F4800495555555555C53F0000E03F21F0004102
:103F5800704700BF00000000C1F30A522DE9F84382
:103F6800A2F2FF36132E0B4604460D468846074636
:103F78001DDC002E40DB3C4A864642FA06F901EA7F
:103F88000902024318D036A3D3E90023FCF734F919
:103F980000220023FDF760F820B1002D42DB002746
:103FA80028EA09053C4629462046BDE8F883332E11
:103FB80006DDB6F5806F2FD019462046BDE8F88398
:103FC8004FF0FF39A2F2134229FA02F910EA090F59
:103FD800F2D023A3D3E90023FCF70EF90022002333
:103FE800FDF73AF80028DDD0002D21DB454627EA09
:103FF80009073C462946D7E719A3D3E90023FCF76C
:10400800FBF800220023FDF727F80028CAD0002D6E
:1040180019DB00273D46C5E702460B46FCF7ECF8DE
:104028000446CAE74FF4801343FA06F6B044B6E7ED
:10403800142E10D00123C6F1340603FA06F63719F8
:1040480028BF9844D2E725F00042084B224318BF06
:104058001D460027A6E705F10108C7E7AFF3008072
:104068009C7500883CE4377EFFFF0F000000F0BF1E
:10407800F8B5C1F30A5604460D460B4617460EBB63
:1040880021F000430343864625D000222E4BFCF73F
:1040980065FA2E4A044697420D460B462ADBC1F3C1
:1040A8000A56363E40F2FE723E44964228DC002E06
:1040B80012DD23F0FF4323F4E00343EA06552046CC
:1040C8002946F8BD40F2FF729642EBD102460B46F4
:1040D800FCF792F8F8BDF8BD16F1350F1DDA4CF271
:1040E80050339F420CDC14A1D1E9000122462B4633
:1040F80000F030F810A3D3E90023FCF72FFAF8BD3D
:1041080022460FA1D1E900012B4600F023F80CA3A9
:10411800D3E90023FCF722FAF8BD23F0FF4323F488
:10412800E003363643EA0655204629460022084B66
:10413800FCF714FAF8BD00BF59F3F8C21F6EA501C9
:104148009C7500883CE4377E00005043B03CFFFF7C
:104158000000903C03F0004321F0004242EA0301D2
:10416800704700BFF8B500BFF8BC08BC9E46704752
:0C417800F8B500BFF8BC08BC9E467047BC
:1041880000000000000000000102030406070809FF
:10419800000000000102030460000020FB21F93F39
:1041A800FB2109407CD91240FB2119407A6A1F4043
:1041B8007CD92240BBFD2540FB2129403A462C40B2
:1041C8007A6A2F405C4731407CD932409C6B34403E
:1041D800BBFD3540DB8F3740FB2139401BB43A40EB
:1041E8003A463C405AD83D407A6A3F404C7E40406F
:1041F8005C4741406C1042407CD942408CA243400D
:104208009C6B4440AC344540BBFD4540CBC6464062
:10421800DB8F4740EB584840FB21494083F9A20017
:10422800444E6E00FC291500D1572700DD34F500F7
:1042380062DBC0003C999500419043006351FE0049
:10424800BBDEAB00B761C5003A6E2400D24D420018
:104258004906E00009EA2E001C92D100EB1DFE0081
:1042680029B11C00E83EA700F535820044BB2E00AA
:104278009CE98400B4267000417E5F00D691390025
:10428800538339009CF439008B5F840028F9BD0002
:10429800F81F3B00DEFF97000F980500112FEF0075
:1042A8000A5A8B006D1F6D00CF7E360009CB2700A0
:1042B800464FB7009E663F002DEA5F00BA2775009B
:1042C800E5EBC7003D7BF100F739070092528A0001
:1042D800FB6BEA001FB15F00085D8D0030035600DC
:1042E8007BFC4600F0AB6B0020BCCF0036F49A0094
:1042F800E3A91D005E619100081BE6008599650031
:10430800A0145F008D40680080D8FF0027734D001F
:1043180006063100CA561500C9A873007BE2600082
:104328006B8CC0000000000000000040FB21F93F3A
:10433800000000002D44743E000000809846F83CC0
:104348000000006051CC783B00000080831BF039EE
:104358000000004020257A38000000802282E336E1
:10436800000000001DF36935020000000300000092
:08437800040000000600000033
:084380002D2D0008AD0100081D
:04438800890100089F
:10438C00CDCCCC3F4000000001000000010000003B
:10439C00010000000100000001000000010000000D
:1043AC0001000000010000000100000001000000FD
:1043BC0001000000010000000100000001000000ED
:1043CC0001000000010000000100000001000000DD
:1043DC000100000001000000010000000024F400B6
:1043EC00000000004C030020B40300201C0400203B
:1043FC0000000000000000000000000000000000B1
:10440C0000000000000000000000000000000000A0
:10441C000000000000000000000000000000000090
:10442C000000000000000000000000000000000080
:10443C000000000000000000000000000000000070
:10444C000000000000000000000000000000000060
:10445C000000000000000000000000000000000050
:10446C000000000000000000000000000000000040
:10447C000000000000000000000000000000000030
:10448C00000000000000000001000000000000001F
:10449C000E33CDAB34126DE6ECDE05000B000000E4
:1044AC000000000000000000000000000000000000
:1044BC0000000000000000000000000000000000F0
:1044CC0000000000000000000000000000000000E0
:1044DC0000000000000000000000000000000000D0
:0C480C000000000000000000901A0020D6
:040000050800257555
:00000001FF
